{
  "contractName": "EventFactory",
  "abi": [
    {
      "anonymous": false,
      "inputs": [
        {
          "indexed": false,
          "internalType": "address",
          "name": "_contractAddress",
          "type": "address"
        }
      ],
      "name": "EventCreated",
      "type": "event"
    },
    {
      "inputs": [
        {
          "internalType": "uint256",
          "name": "",
          "type": "uint256"
        }
      ],
      "name": "events",
      "outputs": [
        {
          "internalType": "address",
          "name": "",
          "type": "address"
        }
      ],
      "stateMutability": "view",
      "type": "function",
      "constant": true
    },
    {
      "inputs": [
        {
          "internalType": "bytes1",
          "name": "_hashFunction",
          "type": "bytes1"
        },
        {
          "internalType": "bytes1",
          "name": "_size",
          "type": "bytes1"
        },
        {
          "internalType": "bytes32",
          "name": "_digest",
          "type": "bytes32"
        }
      ],
      "name": "createEvent",
      "outputs": [],
      "stateMutability": "nonpayable",
      "type": "function"
    },
    {
      "inputs": [],
      "name": "getEvents",
      "outputs": [
        {
          "internalType": "address[]",
          "name": "",
          "type": "address[]"
        }
      ],
      "stateMutability": "view",
      "type": "function",
      "constant": true
    }
  ],
  "bytecode": "0x608060405234801561001057600080fd5b506126b0806100206000396000f3fe608060405234801561001057600080fd5b50600436106100415760003560e01c80630b79143014610046578063404aa8f9146100b45780635032fff714610113575b600080fd5b6100726004803603602081101561005c57600080fd5b8101908080359060200190929190505050610199565b604051808273ffffffffffffffffffffffffffffffffffffffff1673ffffffffffffffffffffffffffffffffffffffff16815260200191505060405180910390f35b6100bc6101d5565b6040518080602001828103825283818151815260200191508051906020019060200280838360005b838110156100ff5780820151818401526020810190506100e4565b505050509050019250505060405180910390f35b6101976004803603606081101561012957600080fd5b8101908080357effffffffffffffffffffffffffffffffffffffffffffffffffffffffffffff1916906020019092919080357effffffffffffffffffffffffffffffffffffffffffffffffffffffffffffff1916906020019092919080359060200190929190505050610263565b005b600081815481106101a657fe5b906000526020600020016000915054906101000a900473ffffffffffffffffffffffffffffffffffffffff1681565b6060600080548060200260200160405190810160405280929190818152602001828054801561025957602002820191906000526020600020905b8160009054906101000a900473ffffffffffffffffffffffffffffffffffffffff1673ffffffffffffffffffffffffffffffffffffffff168152602001906001019080831161020f575b5050505050905090565b60003384848460405161027590610433565b808573ffffffffffffffffffffffffffffffffffffffff1673ffffffffffffffffffffffffffffffffffffffff168152602001847effffffffffffffffffffffffffffffffffffffffffffffffffffffffffffff19167effffffffffffffffffffffffffffffffffffffffffffffffffffffffffffff19168152602001837effffffffffffffffffffffffffffffffffffffffffffffffffffffffffffff19167effffffffffffffffffffffffffffffffffffffffffffffffffffffffffffff19168152602001828152602001945050505050604051809103906000f080158015610364573d6000803e3d6000fd5b5090506000819080600181540180825580915050600190039060005260206000200160009091909190916101000a81548173ffffffffffffffffffffffffffffffffffffffff021916908373ffffffffffffffffffffffffffffffffffffffff1602179055507ffc8a4c0621b9788c4dbe57053a51ce2d22625a067d039f38004df2a07ca755a481604051808273ffffffffffffffffffffffffffffffffffffffff1673ffffffffffffffffffffffffffffffffffffffff16815260200191505060405180910390a150505050565b61223a806104418339019056fe60806040523480156200001157600080fd5b506040516200223a3803806200223a833981810160405281019062000037919062000103565b836000806101000a81548173ffffffffffffffffffffffffffffffffffffffff021916908373ffffffffffffffffffffffffffffffffffffffff1602179055507f6b0ef371f62d5fc16147a9073040323298ef531a8cd26f5cd2a05023340c0b40838383604051620000ac9392919062000191565b60405180910390a15050505062000286565b600081519050620000cf8162000238565b92915050565b600081519050620000e68162000252565b92915050565b600081519050620000fd816200026c565b92915050565b600080600080608085870312156200011a57600080fd5b60006200012a87828801620000be565b94505060206200013d87828801620000d5565b93505060406200015087828801620000d5565b92505060606200016387828801620000ec565b91505092959194509250565b6200017a81620001e2565b82525050565b6200018b816200020e565b82525050565b6000606082019050620001a860008301866200016f565b620001b760208301856200016f565b620001c6604083018462000180565b949350505050565b6000620001db8262000218565b9050919050565b60007fff0000000000000000000000000000000000000000000000000000000000000082169050919050565b6000819050919050565b600073ffffffffffffffffffffffffffffffffffffffff82169050919050565b6200024381620001ce565b81146200024f57600080fd5b50565b6200025d81620001e2565b81146200026957600080fd5b50565b62000277816200020e565b81146200028357600080fd5b50565b611fa480620002966000396000f3fe60806040523480156200001157600080fd5b5060043610620000525760003560e01c80630d6a132f14620000575780638c06ee8d146200008d5780638cedd21a14620000ad578063b33e98ca14620000cf575b600080fd5b6200007560048036038101906200006f919062000435565b620000ef565b6040516200008491906200054b565b60405180910390f35b620000ab6004803603810190620000a591906200035d565b6200012c565b005b620000b76200016e565b604051620000c69190620005d5565b60405180910390f35b620000ed6004803603810190620000e79190620003b3565b620001fe565b005b60028181548110620000fd57fe5b906000526020600020016000915054906101000a900473ffffffffffffffffffffffffffffffffffffffff1681565b7f6b0ef371f62d5fc16147a9073040323298ef531a8cd26f5cd2a05023340c0b408383836040516200016193929190620005f9565b60405180910390a1505050565b60606002805480602002602001604051908101604052809291908181526020018280548015620001f457602002820191906000526020600020905b8160009054906101000a900473ffffffffffffffffffffffffffffffffffffffff1673ffffffffffffffffffffffffffffffffffffffff1681526020019060010190808311620001a9575b5050505050905090565b60008060009054906101000a900473ffffffffffffffffffffffffffffffffffffffff16868686858760405162000235906200030a565b620002469695949392919062000568565b604051809103906000f08015801562000263573d6000803e3d6000fd5b5090507f9df1635d4c31b144eb87a272f5558f38d1a4b00e4f626df0312d9e7f6932df5e816040516200029791906200054b565b60405180910390a16002819080600181540180825580915050600190039060005260206000200160009091909190916101000a81548173ffffffffffffffffffffffffffffffffffffffff021916908373ffffffffffffffffffffffffffffffffffffffff160217905550505050505050565b611829806200074683390190565b6000813590506200032981620006f7565b92915050565b600081359050620003408162000711565b92915050565b60008135905062000357816200072b565b92915050565b6000806000606084860312156200037357600080fd5b6000620003838682870162000318565b9350506020620003968682870162000318565b9250506040620003a9868287016200032f565b9150509250925092565b600080600080600060a08688031215620003cc57600080fd5b6000620003dc8882890162000318565b9550506020620003ef8882890162000318565b945050604062000402888289016200032f565b9350506060620004158882890162000346565b9250506080620004288882890162000346565b9150509295509295909350565b6000602082840312156200044857600080fd5b6000620004588482850162000346565b91505092915050565b60006200046f83836200048c565b60208301905092915050565b620004868162000683565b82525050565b62000497816200066f565b82525050565b620004a8816200066f565b82525050565b6000620004bb8262000646565b620004c781856200065e565b9350620004d48362000636565b8060005b838110156200050b578151620004ef888262000461565b9750620004fc8362000651565b925050600181019050620004d8565b5085935050505092915050565b620005238162000697565b82525050565b6200053481620006c3565b82525050565b6200054581620006ed565b82525050565b60006020820190506200056260008301846200049d565b92915050565b600060c0820190506200057f60008301896200047b565b6200058e602083018862000518565b6200059d604083018762000518565b620005ac606083018662000529565b620005bb60808301856200053a565b620005ca60a08301846200053a565b979650505050505050565b60006020820190508181036000830152620005f18184620004ae565b905092915050565b600060608201905062000610600083018662000518565b6200061f602083018562000518565b6200062e604083018462000529565b949350505050565b6000819050602082019050919050565b600081519050919050565b6000602082019050919050565b600082825260208201905092915050565b60006200067c82620006cd565b9050919050565b60006200069082620006cd565b9050919050565b60007fff0000000000000000000000000000000000000000000000000000000000000082169050919050565b6000819050919050565b600073ffffffffffffffffffffffffffffffffffffffff82169050919050565b6000819050919050565b620007028162000697565b81146200070e57600080fd5b50565b6200071c81620006c3565b81146200072857600080fd5b50565b6200073681620006ed565b81146200074257600080fd5b5056fe60806040523480156200001157600080fd5b506040516200182938038062001829833981810160405281019062000037919062000194565b33600360006101000a81548173ffffffffffffffffffffffffffffffffffffffff021916908373ffffffffffffffffffffffffffffffffffffffff16021790555085600260006101000a81548173ffffffffffffffffffffffffffffffffffffffff021916908373ffffffffffffffffffffffffffffffffffffffff1602179055506000600481905550816000819055508060018190555060006006819055506000600781905550600060088190555060006009819055507f6b0ef371f62d5fc16147a9073040323298ef531a8cd26f5cd2a05023340c0b4085858560405162000124939291906200024c565b60405180910390a150505050505062000365565b6000815190506200014981620002fd565b92915050565b600081519050620001608162000317565b92915050565b600081519050620001778162000331565b92915050565b6000815190506200018e816200034b565b92915050565b60008060008060008060c08789031215620001ae57600080fd5b6000620001be89828a0162000138565b9650506020620001d189828a016200014f565b9550506040620001e489828a016200014f565b9450506060620001f789828a0162000166565b93505060806200020a89828a016200017d565b92505060a06200021d89828a016200017d565b9150509295509295509295565b62000235816200029d565b82525050565b6200024681620002c9565b82525050565b60006060820190506200026360008301866200022a565b6200027260208301856200022a565b6200028160408301846200023b565b949350505050565b60006200029682620002d3565b9050919050565b60007fff0000000000000000000000000000000000000000000000000000000000000082169050919050565b6000819050919050565b600073ffffffffffffffffffffffffffffffffffffffff82169050919050565b6000819050919050565b620003088162000289565b81146200031457600080fd5b50565b62000322816200029d565b81146200032e57600080fd5b50565b6200033c81620002c9565b81146200034857600080fd5b50565b6200035681620002f3565b81146200036257600080fd5b50565b6114b480620003756000396000f3fe6080604052600436106100fe5760003560e01c806362f34b2711610095578063ce963bb011610064578063ce963bb0146102e1578063d150f1231461030c578063e2142fde14610349578063ea4a060814610386578063f55dc78f146103b1576100fe565b806362f34b271461026a57806389fe35e514610295578063a25e90ca146102c0578063a8be2c5c146102d7576100fe565b80633c11d60b116100d15780633c11d60b146101af57806350b44712146101ed57806360bc2e791461022a57806362e899ea14610253576100fe565b806303f053ca146101035780631077420e1461012e5780632afef2a71461015957806335037a5114610184575b600080fd5b34801561010f57600080fd5b506101186103dc565b6040516101259190611368565b60405180910390f35b34801561013a57600080fd5b50610143610474565b6040516101509190611368565b60405180910390f35b34801561016557600080fd5b5061016e61047a565b60405161017b9190611368565b60405180910390f35b34801561019057600080fd5b50610199610480565b6040516101a69190611368565b60405180910390f35b3480156101bb57600080fd5b506101d660048036038101906101d191906110ff565b610486565b6040516101e4929190611383565b60405180910390f35b3480156101f957600080fd5b50610214600480360381019061020f91906110ff565b6104ca565b60405161022191906112b5565b60405180910390f35b34801561023657600080fd5b50610251600480360381019061024c91906110ff565b6104fd565b005b34801561025f57600080fd5b506102686107a2565b005b34801561027657600080fd5b5061027f610878565b60405161028c9190611368565b60405180910390f35b3480156102a157600080fd5b506102aa61087e565b6040516102b79190611368565b60405180910390f35b3480156102cc57600080fd5b506102d5610884565b005b6102df610991565b005b3480156102ed57600080fd5b506102f6610a6d565b60405161030391906112eb565b60405180910390f35b34801561031857600080fd5b50610333600480360381019061032e91906110ff565b610b58565b60405161034091906112d0565b60405180910390f35b34801561035557600080fd5b50610370600480360381019061036b91906110d6565b610b8b565b60405161037d919061130d565b60405180910390f35b34801561039257600080fd5b5061039b610c26565b6040516103a89190611368565b60405180910390f35b3480156103bd57600080fd5b506103c6610c2c565b6040516103d39190611368565b60405180910390f35b600080600090505b60045481101561046b573373ffffffffffffffffffffffffffffffffffffffff166005600083815260200190815260200160002060009054906101000a900473ffffffffffffffffffffffffffffffffffffffff1673ffffffffffffffffffffffffffffffffffffffff16141561045e5780915050610471565b80806001019150506103e4565b50600090505b90565b60085481565b60075481565b60095481565b600a6020528060005260406000206000915090508060000154908060010160009054906101000a900473ffffffffffffffffffffffffffffffffffffffff16905082565b60056020528060005260406000206000915054906101000a900473ffffffffffffffffffffffffffffffffffffffff1681565b3373ffffffffffffffffffffffffffffffffffffffff166005600083815260200190815260200160002060009054906101000a900473ffffffffffffffffffffffffffffffffffffffff1673ffffffffffffffffffffffffffffffffffffffff161461059e576040517f08c379a000000000000000000000000000000000000000000000000000000000815260040161059590611348565b60405180910390fd5b6000806105a9610c32565b91509150600073ffffffffffffffffffffffffffffffffffffffff168273ffffffffffffffffffffffffffffffffffffffff16146106f6573373ffffffffffffffffffffffffffffffffffffffff166108fc6001549081150290604051600060405180830381858888f19350505050158015610629573d6000803e3d6000fd5b50600b600082815260200190815260200160002060009054906101000a900473ffffffffffffffffffffffffffffffffffffffff166005600085815260200190815260200160002060006101000a81548173ffffffffffffffffffffffffffffffffffffffff021916908373ffffffffffffffffffffffffffffffffffffffff160217905550600b6000600854815260200190815260200160002060006101000a81549073ffffffffffffffffffffffffffffffffffffffff02191690556001810160088190555061079d565b60405180604001604052808481526020013373ffffffffffffffffffffffffffffffffffffffff16815250600a600060075481526020019081526020016000206000820151816000015560208201518160010160006101000a81548173ffffffffffffffffffffffffffffffffffffffff021916908373ffffffffffffffffffffffffffffffffffffffff1602179055509050506007600081548092919060010191905055505b505050565b600060065490505b600754811015610875573373ffffffffffffffffffffffffffffffffffffffff16600a600083815260200190815260200160002060010160009054906101000a900473ffffffffffffffffffffffffffffffffffffffff1673ffffffffffffffffffffffffffffffffffffffff16141561086857600a60008281526020019081526020016000206000808201600090556001820160006101000a81549073ffffffffffffffffffffffffffffffffffffffff02191690555050610875565b80806001019150506107aa565b50565b60005481565b60065481565b600060085490505b60095481101561098e573373ffffffffffffffffffffffffffffffffffffffff16600b600083815260200190815260200160002060009054906101000a900473ffffffffffffffffffffffffffffffffffffffff1673ffffffffffffffffffffffffffffffffffffffff16141561098157600b600082815260200190815260200160002060006101000a81549073ffffffffffffffffffffffffffffffffffffffff02191690553373ffffffffffffffffffffffffffffffffffffffff166108fc6001549081150290604051600060405180830381858888f1935050505015801561097b573d6000803e3d6000fd5b5061098e565b808060010191505061088c565b50565b60015434146109d5576040517f08c379a00000000000000000000000000000000000000000000000000000000081526004016109cc90611328565b60405180910390fd5b60005460045410156109ef576109ea33610d08565b610a6b565b60008060006109fc610dda565b925092509250600073ffffffffffffffffffffffffffffffffffffffff168273ffffffffffffffffffffffffffffffffffffffff1614610a5e5780600681905550610a478333610ed8565b600660008154809291906001019190505550610a67565b610a66611044565b5b5050505b565b606060045467ffffffffffffffff81118015610a8857600080fd5b50604051908082528060200260200182016040528015610ab75781602001602082028036833780820191505090505b50905060008090505b600454811015610b51576005600082815260200190815260200160002060009054906101000a900473ffffffffffffffffffffffffffffffffffffffff16828281518110610b0a57fe5b602002602001019073ffffffffffffffffffffffffffffffffffffffff16908173ffffffffffffffffffffffffffffffffffffffff16815250508080600101915050610ac0565b5080905090565b600b6020528060005260406000206000915054906101000a900473ffffffffffffffffffffffffffffffffffffffff1681565b600080600090505b600454811015610c1b578273ffffffffffffffffffffffffffffffffffffffff166005600083815260200190815260200160002060009054906101000a900473ffffffffffffffffffffffffffffffffffffffff1673ffffffffffffffffffffffffffffffffffffffff161415610c0e576001915050610c21565b8080600101915050610b93565b50600090505b919050565b60045481565b60015481565b600080600060085490505b600954811015610cf557600073ffffffffffffffffffffffffffffffffffffffff16600b600083815260200190815260200160002060009054906101000a900473ffffffffffffffffffffffffffffffffffffffff1673ffffffffffffffffffffffffffffffffffffffff1614610cf057600b600082815260200190815260200160002060009054906101000a900473ffffffffffffffffffffffffffffffffffffffff16818191509250925050610d04565b610c3d565b60008081915080905092509250505b9091565b8060056000600454815260200190815260200160002060006101000a81548173ffffffffffffffffffffffffffffffffffffffff021916908373ffffffffffffffffffffffffffffffffffffffff160217905550600460008154809291906001019190505550600260009054906101000a900473ffffffffffffffffffffffffffffffffffffffff1673ffffffffffffffffffffffffffffffffffffffff166108fc349081150290604051600060405180830381858888f19350505050158015610dd6573d6000803e3d6000fd5b5050565b60008060008060065490505b600754811015610ebd57600073ffffffffffffffffffffffffffffffffffffffff16600a600083815260200190815260200160002060010160009054906101000a900473ffffffffffffffffffffffffffffffffffffffff1673ffffffffffffffffffffffffffffffffffffffff1614610eb857600a600082815260200190815260200160002060000154600a600083815260200190815260200160002060010160009054906101000a900473ffffffffffffffffffffffffffffffffffffffff168281915093509350935050610ed3565b610de6565b6000806000829250819150809050935093509350505b909192565b600a6000600654815260200190815260200160002060010160009054906101000a900473ffffffffffffffffffffffffffffffffffffffff1673ffffffffffffffffffffffffffffffffffffffff166108fc6001549081150290604051600060405180830381858888f19350505050158015610f58573d6000803e3d6000fd5b5060056000600a6000600654815260200190815260200160002060000154815260200190815260200160002060006101000a81549073ffffffffffffffffffffffffffffffffffffffff0219169055806005600084815260200190815260200160002060006101000a81548173ffffffffffffffffffffffffffffffffffffffff021916908373ffffffffffffffffffffffffffffffffffffffff160217905550600a600060065481526020019081526020016000206000808201600090556001820160006101000a81549073ffffffffffffffffffffffffffffffffffffffff021916905550505050565b33600b6000600954815260200190815260200160002060006101000a81548173ffffffffffffffffffffffffffffffffffffffff021916908373ffffffffffffffffffffffffffffffffffffffff160217905550600960008154809291906001019190505550565b6000813590506110bb81611450565b92915050565b6000813590506110d081611467565b92915050565b6000602082840312156110e857600080fd5b60006110f6848285016110ac565b91505092915050565b60006020828403121561111157600080fd5b600061111f848285016110c1565b91505092915050565b6000611134838361114f565b60208301905092915050565b61114981611408565b82525050565b611158816113f6565b82525050565b611167816113f6565b82525050565b6000611178826113bc565b61118281856113d4565b935061118d836113ac565b8060005b838110156111be5781516111a58882611128565b97506111b0836113c7565b925050600181019050611191565b5085935050505092915050565b6111d48161141a565b82525050565b60006111e7602a836113e5565b91507f5468652076616c756520646f6573206e6f74206d61746368207468652074696360008301527f6b65742070726963652e000000000000000000000000000000000000000000006020830152604082019050919050565b600061124d602e836113e5565b91507f5468652073656e64657220646f6573204e4f54206f776e2061207469636b657460008301527f206f662074686973206b696e642e0000000000000000000000000000000000006020830152604082019050919050565b6112af81611446565b82525050565b60006020820190506112ca600083018461115e565b92915050565b60006020820190506112e56000830184611140565b92915050565b60006020820190508181036000830152611305818461116d565b905092915050565b600060208201905061132260008301846111cb565b92915050565b60006020820190508181036000830152611341816111da565b9050919050565b6000602082019050818103600083015261136181611240565b9050919050565b600060208201905061137d60008301846112a6565b92915050565b600060408201905061139860008301856112a6565b6113a56020830184611140565b9392505050565b6000819050602082019050919050565b600081519050919050565b6000602082019050919050565b600082825260208201905092915050565b600082825260208201905092915050565b600061140182611426565b9050919050565b600061141382611426565b9050919050565b60008115159050919050565b600073ffffffffffffffffffffffffffffffffffffffff82169050919050565b6000819050919050565b611459816113f6565b811461146457600080fd5b50565b61147081611446565b811461147b57600080fd5b5056fea2646970667358221220b7ce82c526024d68ca1b8c264ab67df1308701440d4d0b51835194d404c75dea64736f6c63430006080033a26469706673582212205ec322afc4411b05752588ce4f0ac5616fc5e128e214f31276deb8c9ab59a4cb64736f6c63430006080033a2646970667358221220554260b46fc77ed1f561d0d93e6c3d40495ecf22bc689dfa7fc74a1f4238e8ca64736f6c63430006080033",
  "immutableReferences": {},
  "source": "pragma solidity >=0.4.22 <0.7.0;\n\nimport \"./Event.sol\";\n\n\ncontract EventFactory {\n    address[] public events;\n\n    event EventCreated(address _contractAddress);\n\n    function createEvent(bytes1 _hashFunction, bytes1 _size, bytes32 _digest)\n        public\n    {\n        Event newEvent = new Event(msg.sender, _hashFunction, _size, _digest);\n        events.push(address(newEvent));\n        emit EventCreated(address(newEvent));\n    }\n\n    function getEvents() public view returns (address[] memory) {\n        return events;\n    }\n}\n\n//\"0x12\",\"0x20\",\"0x6162636400000000000000000000000000000000000000000000000000000000\"\n//\"0x12\",\"0x20\",\"0x6162636400000000000000000000000000000000000000000000000000000000\",10,3",
  "sourcePath": "/Users/michael/MScProjectRepositories/guest-client/idetix/contracts/EventFactory.sol",
  "compiler": {
    "name": "solc",
    "version": "0.6.8+commit.0bbfe453.Emscripten.clang"
  },
  "schemaVersion": "3.2.0",
  "updatedAt": "2020-06-26T09:44:57.737Z",
  "networkType": "ethereum",
  "devdoc": {
    "methods": {}
  },
  "userdoc": {
    "methods": {}
  }
}