{
  "contractName": "FungibleTicketFactory",
  "abi": [
    {
      "inputs": [
        {
          "internalType": "address payable",
          "name": "_eventOwner",
          "type": "address"
        },
        {
          "internalType": "bytes1",
          "name": "_hashFunction",
          "type": "bytes1"
        },
        {
          "internalType": "bytes1",
          "name": "_size",
          "type": "bytes1"
        },
        {
          "internalType": "bytes32",
          "name": "_digest",
          "type": "bytes32"
        },
        {
          "internalType": "uint256",
          "name": "_numberTickets",
          "type": "uint256"
        },
        {
          "internalType": "uint256",
          "name": "_ticketPriceWei",
          "type": "uint256"
        }
      ],
      "stateMutability": "nonpayable",
      "type": "constructor"
    },
    {
      "anonymous": false,
      "inputs": [
        {
          "indexed": false,
          "internalType": "bytes1",
          "name": "hashFunction",
          "type": "bytes1"
        },
        {
          "indexed": false,
          "internalType": "bytes1",
          "name": "size",
          "type": "bytes1"
        },
        {
          "indexed": false,
          "internalType": "bytes32",
          "name": "digest",
          "type": "bytes32"
        }
      ],
      "name": "IpfsCid",
      "type": "event"
    },
    {
      "inputs": [
        {
          "internalType": "uint256",
          "name": "",
          "type": "uint256"
        }
      ],
      "name": "buyingQueue",
      "outputs": [
        {
          "internalType": "address payable",
          "name": "",
          "type": "address"
        }
      ],
      "stateMutability": "view",
      "type": "function"
    },
    {
      "inputs": [],
      "name": "buyingQueueHead",
      "outputs": [
        {
          "internalType": "uint256",
          "name": "",
          "type": "uint256"
        }
      ],
      "stateMutability": "view",
      "type": "function"
    },
    {
      "inputs": [],
      "name": "buyingQueueTail",
      "outputs": [
        {
          "internalType": "uint256",
          "name": "",
          "type": "uint256"
        }
      ],
      "stateMutability": "view",
      "type": "function"
    },
    {
      "inputs": [],
      "name": "numberTickets",
      "outputs": [
        {
          "internalType": "uint256",
          "name": "",
          "type": "uint256"
        }
      ],
      "stateMutability": "view",
      "type": "function"
    },
    {
      "inputs": [
        {
          "internalType": "uint256",
          "name": "",
          "type": "uint256"
        }
      ],
      "name": "sellingQueue",
      "outputs": [
        {
          "internalType": "uint256",
          "name": "ticketId",
          "type": "uint256"
        },
        {
          "internalType": "address payable",
          "name": "ticketOwner",
          "type": "address"
        }
      ],
      "stateMutability": "view",
      "type": "function"
    },
    {
      "inputs": [],
      "name": "sellingQueueHead",
      "outputs": [
        {
          "internalType": "uint256",
          "name": "",
          "type": "uint256"
        }
      ],
      "stateMutability": "view",
      "type": "function"
    },
    {
      "inputs": [],
      "name": "sellingQueueTail",
      "outputs": [
        {
          "internalType": "uint256",
          "name": "",
          "type": "uint256"
        }
      ],
      "stateMutability": "view",
      "type": "function"
    },
    {
      "inputs": [],
      "name": "ticketIndex",
      "outputs": [
        {
          "internalType": "uint256",
          "name": "",
          "type": "uint256"
        }
      ],
      "stateMutability": "view",
      "type": "function"
    },
    {
      "inputs": [],
      "name": "ticketPriceWei",
      "outputs": [
        {
          "internalType": "uint256",
          "name": "",
          "type": "uint256"
        }
      ],
      "stateMutability": "view",
      "type": "function"
    },
    {
      "inputs": [
        {
          "internalType": "uint256",
          "name": "",
          "type": "uint256"
        }
      ],
      "name": "tickets",
      "outputs": [
        {
          "internalType": "address",
          "name": "",
          "type": "address"
        }
      ],
      "stateMutability": "view",
      "type": "function"
    },
    {
      "inputs": [],
      "name": "buyFungibleTicket",
      "outputs": [],
      "stateMutability": "payable",
      "type": "function"
    },
    {
      "inputs": [
        {
          "internalType": "uint256",
          "name": "_ticketId",
          "type": "uint256"
        }
      ],
      "name": "sellFungibleTicket",
      "outputs": [],
      "stateMutability": "nonpayable",
      "type": "function"
    },
    {
      "inputs": [],
      "name": "exitSellingQueue",
      "outputs": [],
      "stateMutability": "nonpayable",
      "type": "function"
    },
    {
      "inputs": [],
      "name": "exitBuyingQueue",
      "outputs": [],
      "stateMutability": "nonpayable",
      "type": "function"
    },
    {
      "inputs": [],
      "name": "getTicketId",
      "outputs": [
        {
          "internalType": "uint256",
          "name": "",
          "type": "uint256"
        }
      ],
      "stateMutability": "view",
      "type": "function"
    },
    {
      "inputs": [
        {
          "internalType": "address",
          "name": "_address",
          "type": "address"
        }
      ],
      "name": "hasTicket",
      "outputs": [
        {
          "internalType": "bool",
          "name": "",
          "type": "bool"
        }
      ],
      "stateMutability": "view",
      "type": "function"
    },
    {
      "inputs": [],
      "name": "getAllTicketOwners",
      "outputs": [
        {
          "internalType": "address[]",
          "name": "_owners",
          "type": "address[]"
        }
      ],
      "stateMutability": "view",
      "type": "function"
    }
  ],
  "bytecode": "0x60806040523480156200001157600080fd5b506040516200182938038062001829833981810160405281019062000037919062000194565b33600360006101000a81548173ffffffffffffffffffffffffffffffffffffffff021916908373ffffffffffffffffffffffffffffffffffffffff16021790555085600260006101000a81548173ffffffffffffffffffffffffffffffffffffffff021916908373ffffffffffffffffffffffffffffffffffffffff1602179055506000600481905550816000819055508060018190555060006006819055506000600781905550600060088190555060006009819055507f6b0ef371f62d5fc16147a9073040323298ef531a8cd26f5cd2a05023340c0b4085858560405162000124939291906200024c565b60405180910390a150505050505062000365565b6000815190506200014981620002fd565b92915050565b600081519050620001608162000317565b92915050565b600081519050620001778162000331565b92915050565b6000815190506200018e816200034b565b92915050565b60008060008060008060c08789031215620001ae57600080fd5b6000620001be89828a0162000138565b9650506020620001d189828a016200014f565b9550506040620001e489828a016200014f565b9450506060620001f789828a0162000166565b93505060806200020a89828a016200017d565b92505060a06200021d89828a016200017d565b9150509295509295509295565b62000235816200029d565b82525050565b6200024681620002c9565b82525050565b60006060820190506200026360008301866200022a565b6200027260208301856200022a565b6200028160408301846200023b565b949350505050565b60006200029682620002d3565b9050919050565b60007fff0000000000000000000000000000000000000000000000000000000000000082169050919050565b6000819050919050565b600073ffffffffffffffffffffffffffffffffffffffff82169050919050565b6000819050919050565b620003088162000289565b81146200031457600080fd5b50565b62000322816200029d565b81146200032e57600080fd5b50565b6200033c81620002c9565b81146200034857600080fd5b50565b6200035681620002f3565b81146200036257600080fd5b50565b6114b480620003756000396000f3fe6080604052600436106100fe5760003560e01c806362f34b2711610095578063ce963bb011610064578063ce963bb0146102e1578063d150f1231461030c578063e2142fde14610349578063ea4a060814610386578063f55dc78f146103b1576100fe565b806362f34b271461026a57806389fe35e514610295578063a25e90ca146102c0578063a8be2c5c146102d7576100fe565b80633c11d60b116100d15780633c11d60b146101af57806350b44712146101ed57806360bc2e791461022a57806362e899ea14610253576100fe565b806303f053ca146101035780631077420e1461012e5780632afef2a71461015957806335037a5114610184575b600080fd5b34801561010f57600080fd5b506101186103dc565b6040516101259190611368565b60405180910390f35b34801561013a57600080fd5b50610143610474565b6040516101509190611368565b60405180910390f35b34801561016557600080fd5b5061016e61047a565b60405161017b9190611368565b60405180910390f35b34801561019057600080fd5b50610199610480565b6040516101a69190611368565b60405180910390f35b3480156101bb57600080fd5b506101d660048036038101906101d191906110ff565b610486565b6040516101e4929190611383565b60405180910390f35b3480156101f957600080fd5b50610214600480360381019061020f91906110ff565b6104ca565b60405161022191906112b5565b60405180910390f35b34801561023657600080fd5b50610251600480360381019061024c91906110ff565b6104fd565b005b34801561025f57600080fd5b506102686107a2565b005b34801561027657600080fd5b5061027f610878565b60405161028c9190611368565b60405180910390f35b3480156102a157600080fd5b506102aa61087e565b6040516102b79190611368565b60405180910390f35b3480156102cc57600080fd5b506102d5610884565b005b6102df610991565b005b3480156102ed57600080fd5b506102f6610a6d565b60405161030391906112eb565b60405180910390f35b34801561031857600080fd5b50610333600480360381019061032e91906110ff565b610b58565b60405161034091906112d0565b60405180910390f35b34801561035557600080fd5b50610370600480360381019061036b91906110d6565b610b8b565b60405161037d919061130d565b60405180910390f35b34801561039257600080fd5b5061039b610c26565b6040516103a89190611368565b60405180910390f35b3480156103bd57600080fd5b506103c6610c2c565b6040516103d39190611368565b60405180910390f35b600080600090505b60045481101561046b573373ffffffffffffffffffffffffffffffffffffffff166005600083815260200190815260200160002060009054906101000a900473ffffffffffffffffffffffffffffffffffffffff1673ffffffffffffffffffffffffffffffffffffffff16141561045e5780915050610471565b80806001019150506103e4565b50600090505b90565b60085481565b60075481565b60095481565b600a6020528060005260406000206000915090508060000154908060010160009054906101000a900473ffffffffffffffffffffffffffffffffffffffff16905082565b60056020528060005260406000206000915054906101000a900473ffffffffffffffffffffffffffffffffffffffff1681565b3373ffffffffffffffffffffffffffffffffffffffff166005600083815260200190815260200160002060009054906101000a900473ffffffffffffffffffffffffffffffffffffffff1673ffffffffffffffffffffffffffffffffffffffff161461059e576040517f08c379a000000000000000000000000000000000000000000000000000000000815260040161059590611348565b60405180910390fd5b6000806105a9610c32565b91509150600073ffffffffffffffffffffffffffffffffffffffff168273ffffffffffffffffffffffffffffffffffffffff16146106f6573373ffffffffffffffffffffffffffffffffffffffff166108fc6001549081150290604051600060405180830381858888f19350505050158015610629573d6000803e3d6000fd5b50600b600082815260200190815260200160002060009054906101000a900473ffffffffffffffffffffffffffffffffffffffff166005600085815260200190815260200160002060006101000a81548173ffffffffffffffffffffffffffffffffffffffff021916908373ffffffffffffffffffffffffffffffffffffffff160217905550600b6000600854815260200190815260200160002060006101000a81549073ffffffffffffffffffffffffffffffffffffffff02191690556001810160088190555061079d565b60405180604001604052808481526020013373ffffffffffffffffffffffffffffffffffffffff16815250600a600060075481526020019081526020016000206000820151816000015560208201518160010160006101000a81548173ffffffffffffffffffffffffffffffffffffffff021916908373ffffffffffffffffffffffffffffffffffffffff1602179055509050506007600081548092919060010191905055505b505050565b600060065490505b600754811015610875573373ffffffffffffffffffffffffffffffffffffffff16600a600083815260200190815260200160002060010160009054906101000a900473ffffffffffffffffffffffffffffffffffffffff1673ffffffffffffffffffffffffffffffffffffffff16141561086857600a60008281526020019081526020016000206000808201600090556001820160006101000a81549073ffffffffffffffffffffffffffffffffffffffff02191690555050610875565b80806001019150506107aa565b50565b60005481565b60065481565b600060085490505b60095481101561098e573373ffffffffffffffffffffffffffffffffffffffff16600b600083815260200190815260200160002060009054906101000a900473ffffffffffffffffffffffffffffffffffffffff1673ffffffffffffffffffffffffffffffffffffffff16141561098157600b600082815260200190815260200160002060006101000a81549073ffffffffffffffffffffffffffffffffffffffff02191690553373ffffffffffffffffffffffffffffffffffffffff166108fc6001549081150290604051600060405180830381858888f1935050505015801561097b573d6000803e3d6000fd5b5061098e565b808060010191505061088c565b50565b60015434146109d5576040517f08c379a00000000000000000000000000000000000000000000000000000000081526004016109cc90611328565b60405180910390fd5b60005460045410156109ef576109ea33610d08565b610a6b565b60008060006109fc610dda565b925092509250600073ffffffffffffffffffffffffffffffffffffffff168273ffffffffffffffffffffffffffffffffffffffff1614610a5e5780600681905550610a478333610ed8565b600660008154809291906001019190505550610a67565b610a66611044565b5b5050505b565b606060045467ffffffffffffffff81118015610a8857600080fd5b50604051908082528060200260200182016040528015610ab75781602001602082028036833780820191505090505b50905060008090505b600454811015610b51576005600082815260200190815260200160002060009054906101000a900473ffffffffffffffffffffffffffffffffffffffff16828281518110610b0a57fe5b602002602001019073ffffffffffffffffffffffffffffffffffffffff16908173ffffffffffffffffffffffffffffffffffffffff16815250508080600101915050610ac0565b5080905090565b600b6020528060005260406000206000915054906101000a900473ffffffffffffffffffffffffffffffffffffffff1681565b600080600090505b600454811015610c1b578273ffffffffffffffffffffffffffffffffffffffff166005600083815260200190815260200160002060009054906101000a900473ffffffffffffffffffffffffffffffffffffffff1673ffffffffffffffffffffffffffffffffffffffff161415610c0e576001915050610c21565b8080600101915050610b93565b50600090505b919050565b60045481565b60015481565b600080600060085490505b600954811015610cf557600073ffffffffffffffffffffffffffffffffffffffff16600b600083815260200190815260200160002060009054906101000a900473ffffffffffffffffffffffffffffffffffffffff1673ffffffffffffffffffffffffffffffffffffffff1614610cf057600b600082815260200190815260200160002060009054906101000a900473ffffffffffffffffffffffffffffffffffffffff16818191509250925050610d04565b610c3d565b60008081915080905092509250505b9091565b8060056000600454815260200190815260200160002060006101000a81548173ffffffffffffffffffffffffffffffffffffffff021916908373ffffffffffffffffffffffffffffffffffffffff160217905550600460008154809291906001019190505550600260009054906101000a900473ffffffffffffffffffffffffffffffffffffffff1673ffffffffffffffffffffffffffffffffffffffff166108fc349081150290604051600060405180830381858888f19350505050158015610dd6573d6000803e3d6000fd5b5050565b60008060008060065490505b600754811015610ebd57600073ffffffffffffffffffffffffffffffffffffffff16600a600083815260200190815260200160002060010160009054906101000a900473ffffffffffffffffffffffffffffffffffffffff1673ffffffffffffffffffffffffffffffffffffffff1614610eb857600a600082815260200190815260200160002060000154600a600083815260200190815260200160002060010160009054906101000a900473ffffffffffffffffffffffffffffffffffffffff168281915093509350935050610ed3565b610de6565b6000806000829250819150809050935093509350505b909192565b600a6000600654815260200190815260200160002060010160009054906101000a900473ffffffffffffffffffffffffffffffffffffffff1673ffffffffffffffffffffffffffffffffffffffff166108fc6001549081150290604051600060405180830381858888f19350505050158015610f58573d6000803e3d6000fd5b5060056000600a6000600654815260200190815260200160002060000154815260200190815260200160002060006101000a81549073ffffffffffffffffffffffffffffffffffffffff0219169055806005600084815260200190815260200160002060006101000a81548173ffffffffffffffffffffffffffffffffffffffff021916908373ffffffffffffffffffffffffffffffffffffffff160217905550600a600060065481526020019081526020016000206000808201600090556001820160006101000a81549073ffffffffffffffffffffffffffffffffffffffff021916905550505050565b33600b6000600954815260200190815260200160002060006101000a81548173ffffffffffffffffffffffffffffffffffffffff021916908373ffffffffffffffffffffffffffffffffffffffff160217905550600960008154809291906001019190505550565b6000813590506110bb81611450565b92915050565b6000813590506110d081611467565b92915050565b6000602082840312156110e857600080fd5b60006110f6848285016110ac565b91505092915050565b60006020828403121561111157600080fd5b600061111f848285016110c1565b91505092915050565b6000611134838361114f565b60208301905092915050565b61114981611408565b82525050565b611158816113f6565b82525050565b611167816113f6565b82525050565b6000611178826113bc565b61118281856113d4565b935061118d836113ac565b8060005b838110156111be5781516111a58882611128565b97506111b0836113c7565b925050600181019050611191565b5085935050505092915050565b6111d48161141a565b82525050565b60006111e7602a836113e5565b91507f5468652076616c756520646f6573206e6f74206d61746368207468652074696360008301527f6b65742070726963652e000000000000000000000000000000000000000000006020830152604082019050919050565b600061124d602e836113e5565b91507f5468652073656e64657220646f6573204e4f54206f776e2061207469636b657460008301527f206f662074686973206b696e642e0000000000000000000000000000000000006020830152604082019050919050565b6112af81611446565b82525050565b60006020820190506112ca600083018461115e565b92915050565b60006020820190506112e56000830184611140565b92915050565b60006020820190508181036000830152611305818461116d565b905092915050565b600060208201905061132260008301846111cb565b92915050565b60006020820190508181036000830152611341816111da565b9050919050565b6000602082019050818103600083015261136181611240565b9050919050565b600060208201905061137d60008301846112a6565b92915050565b600060408201905061139860008301856112a6565b6113a56020830184611140565b9392505050565b6000819050602082019050919050565b600081519050919050565b6000602082019050919050565b600082825260208201905092915050565b600082825260208201905092915050565b600061140182611426565b9050919050565b600061141382611426565b9050919050565b60008115159050919050565b600073ffffffffffffffffffffffffffffffffffffffff82169050919050565b6000819050919050565b611459816113f6565b811461146457600080fd5b50565b61147081611446565b811461147b57600080fd5b5056fea264697066735822122065d527a26b0636007ef2380baf934f16ae4a39474f8712f78f581e6d730b56af64736f6c63430006080033",
  "immutableReferences": {},
  "source": "pragma solidity >=0.4.22 <0.7.0;\r\npragma experimental ABIEncoderV2; //allows returning a struct from a function\r\n\r\n\r\ncontract FungibleTicketFactory {\r\n    //\"0xBfcE6Cc0aA9950427576bD2114E1e3eBf629C562\", \"0x12\",\"0x20\",\"0x6162636400000000000000000000000000000000000000000000000000000000\",1,1000000000000000000\r\n\r\n    // stores the metadata of the event\r\n    event IpfsCid(bytes1 hashFunction, bytes1 size, bytes32 digest);\r\n\r\n    struct ticket{\r\n        uint ticketId;\r\n        address payable ticketOwner;\r\n    }\r\n\r\n    // ticket details\r\n    uint256 public numberTickets;\r\n    uint256 public ticketPriceWei;\r\n\r\n    address payable eventOwner;\r\n    address payable eventAddress;\r\n\r\n\r\n    uint256 public ticketIndex;\r\n    //mapping(address payable => uint8) public tickets;\r\n    \r\n    //address payable[] public ticketOwners;\r\n\r\n    //mapping(address => uint8) public ticketOwners;\r\n\r\n    // ticketId => ticketOwner\r\n    mapping(uint => address) public tickets;\r\n\r\n    // parameters for secondary market logic\r\n    uint256 public sellingQueueHead;\r\n    uint256 public sellingQueueTail;\r\n    uint256 public buyingQueueHead;\r\n    uint256 public buyingQueueTail;\r\n\r\n    mapping(uint256 => ticket) public sellingQueue;\r\n    mapping(uint256 => address payable) public buyingQueue;\r\n\r\n    struct FTicket {\r\n        uint256 id;\r\n        address payable owner;\r\n    }\r\n\r\n    constructor(\r\n        address payable _eventOwner,\r\n        bytes1 _hashFunction,\r\n        bytes1 _size,\r\n        bytes32 _digest,\r\n        uint256 _numberTickets,\r\n        uint256 _ticketPriceWei\r\n    )\r\n        public\r\n    {\r\n        eventAddress = msg.sender;\r\n        eventOwner = _eventOwner;\r\n        ticketIndex = 0;\r\n\r\n        numberTickets = _numberTickets;\r\n        ticketPriceWei = _ticketPriceWei;\r\n\r\n        sellingQueueHead = 0;\r\n        sellingQueueTail = 0;\r\n        buyingQueueHead = 0;\r\n        buyingQueueTail = 0;\r\n\r\n        emit IpfsCid(\r\n             _hashFunction,\r\n             _size,\r\n             _digest\r\n        );\r\n    }\r\n\r\n    function buyFungibleTicket() public payable{\r\n        // TODO Check if msg.sender is has verified ID in verification smart contract\r\n        require(msg.value == ticketPriceWei, \"The value does not match the ticket price.\");\r\n\r\n        // if not all tickets have been issued, the buyer automatically buys from the event owner\r\n        if(ticketIndex < numberTickets){\r\n            issueFungibleTicket(msg.sender);\r\n            return;\r\n        }\r\n\r\n        // if people want to sell tickets, the buyer automatically buys from the earliest seller\r\n        (uint ticketId, address sellerAddress, uint newSellingQueueHead) = getNextAddressInSellingQueue();\r\n        if( sellerAddress != address(0)){\r\n            sellingQueueHead = newSellingQueueHead;\r\n            buyFromSellingQueue(ticketId, msg.sender);\r\n            sellingQueueHead++;\r\n        }\r\n\r\n        // if nobody wants to sell yet, the buyer joins the buying queue\r\n        // money is stored in the smart contract\r\n        else{\r\n            joinBuyingQueue();\r\n        }\r\n    }\r\n\r\n\r\n    function issueFungibleTicket(address payable _ticketOwner) internal {\r\n        // issue the ticket\r\n        tickets[ticketIndex] = _ticketOwner;\r\n\r\n        ticketIndex++;\r\n\r\n        // TODO send ticket price to the event owner or escrow service\r\n        (eventOwner).transfer(msg.value);\r\n    }\r\n\r\n\r\n    function buyFromSellingQueue(uint _ticketId, address payable _newOwner) internal{\r\n        // transfer money\r\n        (sellingQueue[sellingQueueHead].ticketOwner).transfer(ticketPriceWei);\r\n\r\n        // transfer ownership\r\n        delete tickets[sellingQueue[sellingQueueHead].ticketId];\r\n        tickets[_ticketId] = _newOwner;\r\n\r\n        // remove user from the queue\r\n        delete sellingQueue[sellingQueueHead];\r\n    }\r\n\r\n    function joinBuyingQueue() internal{\r\n        buyingQueue[buyingQueueTail] = msg.sender;\r\n        buyingQueueTail++;\r\n    }\r\n\r\n    function sellFungibleTicket(uint _ticketId) public{\r\n\r\n        require(tickets[_ticketId] == msg.sender, \"The sender does NOT own a ticket of this kind.\");\r\n\r\n        // if people are in the waiting queue for buying tickets\r\n        (address buyerAddress, uint newBuyingQueueHead) = getNextAddressInBuyingQueue();\r\n        if(buyerAddress != address(0)){\r\n            // transfer money\r\n            (msg.sender).transfer(ticketPriceWei);\r\n\r\n            // transfer ownership\r\n            tickets[_ticketId] = buyingQueue[newBuyingQueueHead];\r\n\r\n            // remove user from the queue\r\n            delete buyingQueue[buyingQueueHead];\r\n            buyingQueueHead = newBuyingQueueHead + 1;\r\n        }\r\n\r\n        // else join selling queue\r\n        else{\r\n            sellingQueue[sellingQueueTail] = ticket({ticketId:_ticketId, ticketOwner:msg.sender});\r\n            sellingQueueTail++;\r\n        }\r\n    }\r\n    \r\n    function exitSellingQueue() public{\r\n        for(uint256 i = sellingQueueHead; i < sellingQueueTail; i++){\r\n            if(sellingQueue[i].ticketOwner == msg.sender){\r\n                delete sellingQueue[i];\r\n                break;\r\n            }\r\n        }\r\n    }\r\n    \r\n    function exitBuyingQueue() public {\r\n        for(uint256 i = buyingQueueHead; i < buyingQueueTail; i++){\r\n            if(buyingQueue[i] == msg.sender){\r\n                \r\n                // delete posistion in the queue\r\n                // basically doing this: sellingQueue[i] == address(0);\r\n                delete buyingQueue[i];\r\n                \r\n                \r\n                // refund deposit\r\n                (msg.sender).transfer(ticketPriceWei);\r\n                \r\n                break;\r\n            }\r\n        }\r\n    }\r\n    \r\n    function getTicketId() public view returns(uint){\r\n        for(uint i = 0; i < ticketIndex; i++){\r\n            if(tickets[i] == msg.sender){\r\n                return i;\r\n            }\r\n        }\r\n        return 0;\r\n    }\r\n    \r\n    function hasTicket(address _address) public view returns(bool){\r\n        for(uint i = 0; i < ticketIndex; i++){\r\n            if(tickets[i] == _address){\r\n                return true;\r\n            }\r\n        }\r\n        return false;\r\n    }\r\n    \r\n    function getNextAddressInBuyingQueue() internal view returns(address buyerAddress, uint newBuyingQueueHead){\r\n        uint i = buyingQueueHead;\r\n        while(i < buyingQueueTail){\r\n            if(buyingQueue[i] != address(0)){\r\n                return (buyingQueue[i], i);\r\n            }\r\n        }\r\n        return (address(0), 0);\r\n    }\r\n    \r\n    function getNextAddressInSellingQueue() internal view returns(uint ticketId, address sellerAddress, uint newSellingQueueHead){\r\n        uint i = sellingQueueHead;\r\n        while(i < sellingQueueTail){\r\n            if(sellingQueue[i].ticketOwner != address(0)){\r\n                return (sellingQueue[i].ticketId, sellingQueue[i].ticketOwner, i);\r\n            }\r\n        }\r\n        return (0, address(0), 0);\r\n    }\r\n    \r\n    function getAllTicketOwners() public view returns(address[] memory _owners){\r\n        _owners = new address[](ticketIndex);\r\n        \r\n        for(uint i = 0; i < ticketIndex; i++){\r\n            _owners[i] = tickets[i];\r\n        }\r\n        \r\n        return _owners;\r\n    }\r\n}",
  "sourcePath": "C:\\Users\\brass\\Documents\\dev\\guest-client\\idetix\\contracts\\FungibleTicketFactory.sol",
  "compiler": {
    "name": "solc",
    "version": "0.6.8+commit.0bbfe453.Emscripten.clang"
  },
  "schemaVersion": "3.2.0",
  "updatedAt": "2020-07-08T16:30:24.249Z",
  "devdoc": {
    "methods": {}
  },
  "userdoc": {
    "methods": {}
  }
}