{
  "contractName": "EventFactory",
  "abi": [
    {
      "constant": true,
      "inputs": [],
      "name": "eventIndex",
      "outputs": [
        {
          "internalType": "uint256",
          "name": "",
          "type": "uint256"
        }
      ],
      "payable": false,
      "stateMutability": "view",
      "type": "function"
    },
    {
      "constant": true,
      "inputs": [
        {
          "internalType": "uint256",
          "name": "",
          "type": "uint256"
        }
      ],
      "name": "events",
      "outputs": [
        {
          "internalType": "address payable",
          "name": "owner",
          "type": "address"
        },
        {
          "internalType": "uint256",
          "name": "eventId",
          "type": "uint256"
        },
        {
          "internalType": "string",
          "name": "metadataURI",
          "type": "string"
        },
        {
          "internalType": "bytes32",
          "name": "hashMetadata",
          "type": "bytes32"
        },
        {
          "internalType": "uint256",
          "name": "fungibleTicketFactoryIndex",
          "type": "uint256"
        },
        {
          "internalType": "uint256",
          "name": "nonFungibleTicketFactoryIndex",
          "type": "uint256"
        }
      ],
      "payable": false,
      "stateMutability": "view",
      "type": "function"
    },
    {
      "constant": false,
      "inputs": [
        {
          "internalType": "string",
          "name": "_metadataURI",
          "type": "string"
        }
      ],
      "name": "createEvent",
      "outputs": [],
      "payable": false,
      "stateMutability": "nonpayable",
      "type": "function"
    },
    {
      "constant": false,
      "inputs": [
        {
          "internalType": "uint256",
          "name": "_eventId",
          "type": "uint256"
        },
        {
          "internalType": "uint256",
          "name": "_ticketPrice",
          "type": "uint256"
        },
        {
          "internalType": "uint256",
          "name": "_numberTickets",
          "type": "uint256"
        },
        {
          "internalType": "string",
          "name": "_metadataURI",
          "type": "string"
        }
      ],
      "name": "addFungibleTicketFactory",
      "outputs": [],
      "payable": false,
      "stateMutability": "nonpayable",
      "type": "function"
    },
    {
      "constant": false,
      "inputs": [
        {
          "internalType": "uint256",
          "name": "_eventId",
          "type": "uint256"
        },
        {
          "internalType": "uint256",
          "name": "_fungibleTicketFactoryId",
          "type": "uint256"
        }
      ],
      "name": "buyFungibleTicket",
      "outputs": [],
      "payable": true,
      "stateMutability": "payable",
      "type": "function"
    },
    {
      "constant": false,
      "inputs": [
        {
          "internalType": "uint256",
          "name": "_eventId",
          "type": "uint256"
        },
        {
          "internalType": "uint256",
          "name": "_fungibleTicketFactoryId",
          "type": "uint256"
        },
        {
          "internalType": "uint256",
          "name": "_ticketId",
          "type": "uint256"
        }
      ],
      "name": "sellFungibleTicket",
      "outputs": [],
      "payable": false,
      "stateMutability": "nonpayable",
      "type": "function"
    },
    {
      "constant": false,
      "inputs": [
        {
          "internalType": "uint256",
          "name": "_eventId",
          "type": "uint256"
        },
        {
          "internalType": "uint256",
          "name": "_ticketPrice",
          "type": "uint256"
        },
        {
          "internalType": "uint256",
          "name": "_numberTickets",
          "type": "uint256"
        },
        {
          "internalType": "string",
          "name": "_metadataURI",
          "type": "string"
        }
      ],
      "name": "addNonFungibleTicketFactory",
      "outputs": [],
      "payable": false,
      "stateMutability": "nonpayable",
      "type": "function"
    },
    {
      "constant": false,
      "inputs": [
        {
          "internalType": "uint256",
          "name": "_eventId",
          "type": "uint256"
        },
        {
          "internalType": "uint256",
          "name": "_nonFungibleTicketFactoryId",
          "type": "uint256"
        },
        {
          "internalType": "uint256",
          "name": "_ticketId",
          "type": "uint256"
        }
      ],
      "name": "buyNonFungibleTicket",
      "outputs": [],
      "payable": true,
      "stateMutability": "payable",
      "type": "function"
    },
    {
      "constant": false,
      "inputs": [
        {
          "internalType": "uint256",
          "name": "_eventId",
          "type": "uint256"
        },
        {
          "internalType": "uint256",
          "name": "_nonFungibleTicketFactoryId",
          "type": "uint256"
        },
        {
          "internalType": "uint256",
          "name": "_ticketId",
          "type": "uint256"
        }
      ],
      "name": "sellNonFungibleTicket",
      "outputs": [],
      "payable": false,
      "stateMutability": "nonpayable",
      "type": "function"
    },
    {
      "constant": false,
      "inputs": [
        {
          "internalType": "uint256",
          "name": "_eventId",
          "type": "uint256"
        },
        {
          "internalType": "uint256",
          "name": "_nonFungibleTicketFactoryId",
          "type": "uint256"
        },
        {
          "internalType": "uint256",
          "name": "_ticketId",
          "type": "uint256"
        }
      ],
      "name": "cancelSellOrderNonFungibleTicket",
      "outputs": [],
      "payable": false,
      "stateMutability": "nonpayable",
      "type": "function"
    },
    {
      "constant": true,
      "inputs": [
        {
          "internalType": "uint256",
          "name": "_eventId",
          "type": "uint256"
        },
        {
          "internalType": "uint256",
          "name": "_fungibleTicketFactoryId",
          "type": "uint256"
        },
        {
          "internalType": "uint256",
          "name": "_ticketId",
          "type": "uint256"
        }
      ],
      "name": "getFungibleTicket",
      "outputs": [
        {
          "components": [
            {
              "internalType": "uint256",
              "name": "id",
              "type": "uint256"
            },
            {
              "internalType": "address payable",
              "name": "owner",
              "type": "address"
            }
          ],
          "internalType": "struct EventFactory.FungibleTicket",
          "name": "_ticket",
          "type": "tuple"
        }
      ],
      "payable": false,
      "stateMutability": "view",
      "type": "function"
    },
    {
      "constant": true,
      "inputs": [
        {
          "internalType": "uint256",
          "name": "_eventId",
          "type": "uint256"
        },
        {
          "internalType": "uint256",
          "name": "_fungibleTicketFactoryId",
          "type": "uint256"
        }
      ],
      "name": "getFungibleTickets",
      "outputs": [
        {
          "components": [
            {
              "internalType": "uint256",
              "name": "id",
              "type": "uint256"
            },
            {
              "internalType": "address payable",
              "name": "owner",
              "type": "address"
            }
          ],
          "internalType": "struct EventFactory.FungibleTicket[]",
          "name": "_fts",
          "type": "tuple[]"
        }
      ],
      "payable": false,
      "stateMutability": "view",
      "type": "function"
    },
    {
      "constant": true,
      "inputs": [
        {
          "internalType": "uint256",
          "name": "_eventId",
          "type": "uint256"
        },
        {
          "internalType": "uint256",
          "name": "_fungibleTicketFactoryId",
          "type": "uint256"
        }
      ],
      "name": "getFungibleTicketFactory",
      "outputs": [
        {
          "internalType": "string",
          "name": "_metadataURI",
          "type": "string"
        },
        {
          "internalType": "bytes32",
          "name": "_hashMetadata",
          "type": "bytes32"
        },
        {
          "internalType": "uint256",
          "name": "_numberTickets",
          "type": "uint256"
        },
        {
          "internalType": "uint256",
          "name": "_ticketPrice",
          "type": "uint256"
        },
        {
          "internalType": "uint256",
          "name": "_ticketIndex",
          "type": "uint256"
        },
        {
          "internalType": "uint256",
          "name": "_sellingQueueHeadLength",
          "type": "uint256"
        },
        {
          "internalType": "uint256",
          "name": "_buyingQueueHeadLength",
          "type": "uint256"
        }
      ],
      "payable": false,
      "stateMutability": "view",
      "type": "function"
    },
    {
      "constant": true,
      "inputs": [
        {
          "internalType": "uint256",
          "name": "_eventId",
          "type": "uint256"
        },
        {
          "internalType": "uint256",
          "name": "_nonFungibleTicketFactoryId",
          "type": "uint256"
        },
        {
          "internalType": "uint256",
          "name": "_ticketId",
          "type": "uint256"
        }
      ],
      "name": "getNonFungibleTicket",
      "outputs": [
        {
          "components": [
            {
              "internalType": "uint256",
              "name": "id",
              "type": "uint256"
            },
            {
              "internalType": "address payable",
              "name": "owner",
              "type": "address"
            },
            {
              "internalType": "bool",
              "name": "isForSale",
              "type": "bool"
            }
          ],
          "internalType": "struct EventFactory.NonFungibleTicket",
          "name": "_ticket",
          "type": "tuple"
        }
      ],
      "payable": false,
      "stateMutability": "view",
      "type": "function"
    },
    {
      "constant": true,
      "inputs": [
        {
          "internalType": "uint256",
          "name": "_eventId",
          "type": "uint256"
        },
        {
          "internalType": "uint256",
          "name": "_nonFungibleTicketFactoryId",
          "type": "uint256"
        }
      ],
      "name": "getNonFungibleTickets",
      "outputs": [
        {
          "components": [
            {
              "internalType": "uint256",
              "name": "id",
              "type": "uint256"
            },
            {
              "internalType": "address payable",
              "name": "owner",
              "type": "address"
            },
            {
              "internalType": "bool",
              "name": "isForSale",
              "type": "bool"
            }
          ],
          "internalType": "struct EventFactory.NonFungibleTicket[]",
          "name": "_nfts",
          "type": "tuple[]"
        }
      ],
      "payable": false,
      "stateMutability": "view",
      "type": "function"
    },
    {
      "constant": true,
      "inputs": [
        {
          "internalType": "uint256",
          "name": "_eventId",
          "type": "uint256"
        },
        {
          "internalType": "uint256",
          "name": "_nonFungibleTicketFactoryId",
          "type": "uint256"
        }
      ],
      "name": "getNonFungibleTicketFactory",
      "outputs": [
        {
          "internalType": "string",
          "name": "_metadataURI",
          "type": "string"
        },
        {
          "internalType": "bytes32",
          "name": "_hashMetadata",
          "type": "bytes32"
        },
        {
          "internalType": "uint256",
          "name": "_numberTickets",
          "type": "uint256"
        },
        {
          "internalType": "uint256",
          "name": "_ticketPrice",
          "type": "uint256"
        },
        {
          "internalType": "uint256",
          "name": "_numberTicketsIssued",
          "type": "uint256"
        }
      ],
      "payable": false,
      "stateMutability": "view",
      "type": "function"
    }
  ],
  "bytecode": "0x608060405234801561001057600080fd5b50612860806100206000396000f3fe6080604052600436106100f35760003560e01c80636cec370a1161008a5780638090bf5f116100595780638090bf5f146103465780639371a0a6146103835780639bc2bc71146103c6578063ae6a149e146103ef576100f3565b80636cec370a1461028e578063703f55e6146102cb57806371d7bf69146102f45780637512ca311461031d576100f3565b806344becd07116100c657806344becd07146101cb578063539d43431461020c578063556b6a1e1461024957806359298c3e14610265576100f3565b80630b791430146100f857806317d18bee1461013a57806319c2d4571461016557806330c92a12146101a2575b600080fd5b34801561010457600080fd5b5061011f600480360361011a9190810190611e75565b61040b565b60405161013196959493929190612422565b60405180910390f35b34801561014657600080fd5b5061014f6104ff565b60405161015c9190612654565b60405180910390f35b34801561017157600080fd5b5061018c60048036036101879190810190611e9e565b610505565b604051610199919061248a565b60405180910390f35b3480156101ae57600080fd5b506101c960048036036101c49190810190611f29565b610656565b005b3480156101d757600080fd5b506101f260048036036101ed9190810190611e9e565b610782565b6040516102039594939291906124ce565b60405180910390f35b34801561021857600080fd5b50610233600480360361022e9190810190611eda565b6108c1565b604051610240919061261e565b60405180910390f35b610263600480360361025e9190810190611e9e565b610978565b005b34801561027157600080fd5b5061028c60048036036102879190810190611eda565b610a71565b005b34801561029a57600080fd5b506102b560048036036102b09190810190611e9e565b610d3e565b6040516102c291906124ac565b60405180910390f35b3480156102d757600080fd5b506102f260048036036102ed9190810190611f29565b610eaa565b005b34801561030057600080fd5b5061031b60048036036103169190810190611eda565b610f90565b005b34801561032957600080fd5b50610344600480360361033f9190810190611eda565b611098565b005b34801561035257600080fd5b5061036d60048036036103689190810190611eda565b6111a0565b60405161037a9190612639565b60405180910390f35b34801561038f57600080fd5b506103aa60048036036103a59190810190611e9e565b611272565b6040516103bd9796959493929190612528565b60405180910390f35b3480156103d257600080fd5b506103ed60048036036103e89190810190611e34565b6113fa565b005b61040960048036036104049190810190611eda565b6114ff565b005b60016020528060005260406000206000915090508060000160009054906101000a900473ffffffffffffffffffffffffffffffffffffffff1690806001015490806002018054600181600116156101000203166002900480601f0160208091040260200160405190810160405280929190818152602001828054600181600116156101000203166002900480156104e35780601f106104b8576101008083540402835291602001916104e3565b820191906000526020600020905b8154815290600101906020018083116104c657829003601f168201915b5050505050908060030154908060040154908060060154905086565b60005481565b606060006001600085815260200190815260200160002060050160008481526020019081526020016000206004015490508060405190808252806020026020018201604052801561057057816020015b61055d611bd3565b8152602001906001900390816105555790505b50915060008090505b8181101561064b576001600086815260200190815260200160002060050160008581526020019081526020016000206005016000828152602001908152602001600020604051806040016040529081600082015481526020016001820160009054906101000a900473ffffffffffffffffffffffffffffffffffffffff1673ffffffffffffffffffffffffffffffffffffffff1673ffffffffffffffffffffffffffffffffffffffff168152505083828151811061063357fe5b60200260200101819052508080600101915050610579565b508191505092915050565b600060016000868152602001908152602001600020600401549050604051806101200160405280838152602001838051906020012081526020018481526020018581526020016000815260200160008152602001600081526020016000815260200160008152506001600087815260200190815260200160002060050160008381526020019081526020016000206000820151816000019080519060200190610700929190611c03565b506020820151816001015560408201518160020155606082015181600301556080820151816004015560a0820151816006015560c0820151816007015560e08201518160080155610100820151816009015590505060016000868152602001908152602001600020600401600081548092919060010191905055505050505050565b6060600080600080610792611c83565b6001600089815260200190815260200160002060070160008881526020019081526020016000206040518060a00160405290816000820154815260200160018201548152602001600282018054600181600116156101000203166002900480601f0160208091040260200160405190810160405280929190818152602001828054600181600116156101000203166002900480156108715780601f1061084657610100808354040283529160200191610871565b820191906000526020600020905b81548152906001019060200180831161085457829003601f168201915b505050505081526020016003820154815260200160048201548152505090508060400151816060015182600001518360200151846080015184945095509550955095509550509295509295909350565b6108c9611cb5565b6001600085815260200190815260200160002060050160008481526020019081526020016000206005016000838152602001908152602001600020604051806040016040529081600082015481526020016001820160009054906101000a900473ffffffffffffffffffffffffffffffffffffffff1673ffffffffffffffffffffffffffffffffffffffff1673ffffffffffffffffffffffffffffffffffffffff168152505090509392505050565b60006001600084815260200190815260200160002060050160008381526020019081526020016000209050806003015434146109e9576040517f08c379a00000000000000000000000000000000000000000000000000000000081526004016109e0906125fe565b60405180910390fd5b60006001600085815260200190815260200160002060000160009054906101000a900473ffffffffffffffffffffffffffffffffffffffff169050816002015482600401541015610a4357610a3e8282611712565b610a6b565b8160060154826007015414610a6057610a5b8261180d565b610a6a565b610a6982611969565b5b5b50505050565b6000600160008581526020019081526020016000206005016000848152602001908152602001600020905080600501600083815260200190815260200160002060010160009054906101000a900473ffffffffffffffffffffffffffffffffffffffff1673ffffffffffffffffffffffffffffffffffffffff163373ffffffffffffffffffffffffffffffffffffffff1614610b42576040517f08c379a0000000000000000000000000000000000000000000000000000000008152600401610b399061259e565b60405180910390fd5b8060080154816009015414610c81573373ffffffffffffffffffffffffffffffffffffffff166108fc82600301549081150290604051600060405180830381858888f19350505050158015610b9b573d6000803e3d6000fd5b5080600b0160008260080154815260200190815260200160002060009054906101000a900473ffffffffffffffffffffffffffffffffffffffff1681600501600084815260200190815260200160002060010160006101000a81548173ffffffffffffffffffffffffffffffffffffffff021916908373ffffffffffffffffffffffffffffffffffffffff16021790555080600b0160008260080154815260200190815260200160002060006101000a81549073ffffffffffffffffffffffffffffffffffffffff02191690558060080160008154809291906001019190505550610d38565b80600501600083815260200190815260200160002081600a01600083600701548152602001908152602001600020600082015481600001556001820160009054906101000a900473ffffffffffffffffffffffffffffffffffffffff168160010160006101000a81548173ffffffffffffffffffffffffffffffffffffffff021916908373ffffffffffffffffffffffffffffffffffffffff16021790555090505080600701600081548092919060010191905055505b50505050565b6060600060016000858152602001908152602001600020600701600084815260200190815260200160002060040154905080604051908082528060200260200182016040528015610da957816020015b610d96611ce5565b815260200190600190039081610d8e5790505b50915060008090505b81811015610e9f576001600086815260200190815260200160002060070160008581526020019081526020016000206005016000828152602001908152602001600020604051806060016040529081600082015481526020016001820160009054906101000a900473ffffffffffffffffffffffffffffffffffffffff1673ffffffffffffffffffffffffffffffffffffffff1673ffffffffffffffffffffffffffffffffffffffff1681526020016001820160149054906101000a900460ff161515151581525050838281518110610e8757fe5b60200260200101819052508080600101915050610db2565b508191505092915050565b6000600160008681526020019081526020016000206006015490506040518060a0016040528084815260200185815260200183815260200183805190602001208152602001600081525060016000878152602001908152602001600020600701600083815260200190815260200160002060008201518160000155602082015181600101556040820151816002019080519060200190610f4b929190611c03565b50606082015181600301556080820151816004015590505060016000868152602001908152602001600020600601600081548092919060010191905055505050505050565b6000600160008581526020019081526020016000206007016000848152602001908152602001600020905080600501600083815260200190815260200160002060010160009054906101000a900473ffffffffffffffffffffffffffffffffffffffff1673ffffffffffffffffffffffffffffffffffffffff163373ffffffffffffffffffffffffffffffffffffffff1614611061576040517f08c379a00000000000000000000000000000000000000000000000000000000081526004016110589061259e565b60405180910390fd5b600181600501600084815260200190815260200160002060010160146101000a81548160ff02191690831515021790555050505050565b6000600160008581526020019081526020016000206007016000848152602001908152602001600020905080600501600083815260200190815260200160002060010160009054906101000a900473ffffffffffffffffffffffffffffffffffffffff1673ffffffffffffffffffffffffffffffffffffffff163373ffffffffffffffffffffffffffffffffffffffff1614611169576040517f08c379a0000000000000000000000000000000000000000000000000000000008152600401611160906125de565b60405180910390fd5b600081600501600084815260200190815260200160002060010160146101000a81548160ff02191690831515021790555050505050565b6111a8611d1e565b6001600085815260200190815260200160002060070160008481526020019081526020016000206005016000838152602001908152602001600020604051806060016040529081600082015481526020016001820160009054906101000a900473ffffffffffffffffffffffffffffffffffffffff1673ffffffffffffffffffffffffffffffffffffffff1673ffffffffffffffffffffffffffffffffffffffff1681526020016001820160149054906101000a900460ff16151515158152505090509392505050565b6060600080600080600080611285611d57565b600160008b815260200190815260200160002060050160008a815260200190815260200160002060405180610120016040529081600082018054600181600116156101000203166002900480601f0160208091040260200160405190810160405280929190818152602001828054600181600116156101000203166002900480156113515780601f1061132657610100808354040283529160200191611351565b820191906000526020600020905b81548152906001019060200180831161133457829003601f168201915b50505050508152602001600182015481526020016002820154815260200160038201548152602001600482015481526020016006820154815260200160078201548152602001600882015481526020016009820154815250509050806000015181602001518260400151836060015184608001518560c001518660a00151038661010001518760e001510386965097509750975097509750975097505092959891949750929550565b6040518060c001604052803373ffffffffffffffffffffffffffffffffffffffff168152602001600054815260200182815260200182805190602001208152602001600081526020016000815250600160008054815260200190815260200160002060008201518160000160006101000a81548173ffffffffffffffffffffffffffffffffffffffff021916908373ffffffffffffffffffffffffffffffffffffffff1602179055506020820151816001015560408201518160020190805190602001906114c9929190611c03565b50606082015181600301556080820151816004015560a08201518160060155905050600080815480929190600101919050555050565b6000600160008581526020019081526020016000206007016000848152602001908152602001600020905080600101543414611570576040517f08c379a0000000000000000000000000000000000000000000000000000000008152600401611567906125fe565b60405180910390fd5b600073ffffffffffffffffffffffffffffffffffffffff1681600501600084815260200190815260200160002060010160009054906101000a900473ffffffffffffffffffffffffffffffffffffffff1673ffffffffffffffffffffffffffffffffffffffff161480611605575080600501600083815260200190815260200160002060010160149054906101000a900460ff165b611644576040517f08c379a000000000000000000000000000000000000000000000000000000000815260040161163b906125be565b60405180910390fd5b60006001600086815260200190815260200160002060000160009054906101000a900473ffffffffffffffffffffffffffffffffffffffff169050600073ffffffffffffffffffffffffffffffffffffffff1682600501600085815260200190815260200160002060010160009054906101000a900473ffffffffffffffffffffffffffffffffffffffff1673ffffffffffffffffffffffffffffffffffffffff1614156116fe576116f982843334856119d8565b61170b565b61170a82843334611af7565b5b5050505050565b6040518060400160405280836004015481526020013373ffffffffffffffffffffffffffffffffffffffff16815250826005016000846004015481526020019081526020016000206000820151816000015560208201518160010160006101000a81548173ffffffffffffffffffffffffffffffffffffffff021916908373ffffffffffffffffffffffffffffffffffffffff16021790555090505081600401600081548092919060010191905055508073ffffffffffffffffffffffffffffffffffffffff166108fc349081150290604051600060405180830381858888f19350505050158015611808573d6000803e3d6000fd5b505050565b80600a0160008260060154815260200190815260200160002060010160009054906101000a900473ffffffffffffffffffffffffffffffffffffffff1673ffffffffffffffffffffffffffffffffffffffff166108fc82600301549081150290604051600060405180830381858888f19350505050158015611893573d6000803e3d6000fd5b503381600501600083600a0160008560060154815260200190815260200160002060000154815260200190815260200160002060010160006101000a81548173ffffffffffffffffffffffffffffffffffffffff021916908373ffffffffffffffffffffffffffffffffffffffff16021790555080600a016000826006015481526020019081526020016000206000808201600090556001820160006101000a81549073ffffffffffffffffffffffffffffffffffffffff02191690555050806006016000815480929190600101919050555050565b3381600b0160008360090154815260200190815260200160002060006101000a81548173ffffffffffffffffffffffffffffffffffffffff021916908373ffffffffffffffffffffffffffffffffffffffff160217905550806009016000815480929190600101919050555050565b60405180606001604052808581526020018473ffffffffffffffffffffffffffffffffffffffff168152602001600015158152508560050160008681526020019081526020016000206000820151816000015560208201518160010160006101000a81548173ffffffffffffffffffffffffffffffffffffffff021916908373ffffffffffffffffffffffffffffffffffffffff16021790555060408201518160010160146101000a81548160ff02191690831515021790555090505084600401600081548092919060010191905055508073ffffffffffffffffffffffffffffffffffffffff166108fc839081150290604051600060405180830381858888f19350505050158015611aef573d6000803e3d6000fd5b505050505050565b83600501600084815260200190815260200160002060010160009054906101000a900473ffffffffffffffffffffffffffffffffffffffff1673ffffffffffffffffffffffffffffffffffffffff166108fc829081150290604051600060405180830381858888f19350505050158015611b75573d6000803e3d6000fd5b508184600501600085815260200190815260200160002060010160006101000a81548173ffffffffffffffffffffffffffffffffffffffff021916908373ffffffffffffffffffffffffffffffffffffffff16021790555050505050565b604051806040016040528060008152602001600073ffffffffffffffffffffffffffffffffffffffff1681525090565b828054600181600116156101000203166002900490600052602060002090601f016020900481019282601f10611c4457805160ff1916838001178555611c72565b82800160010185558215611c72579182015b82811115611c71578251825591602001919060010190611c56565b5b509050611c7f9190611da6565b5090565b6040518060a0016040528060008152602001600081526020016060815260200160008019168152602001600081525090565b604051806040016040528060008152602001600073ffffffffffffffffffffffffffffffffffffffff1681525090565b604051806060016040528060008152602001600073ffffffffffffffffffffffffffffffffffffffff1681526020016000151581525090565b604051806060016040528060008152602001600073ffffffffffffffffffffffffffffffffffffffff1681526020016000151581525090565b6040518061012001604052806060815260200160008019168152602001600081526020016000815260200160008152602001600081526020016000815260200160008152602001600081525090565b611dc891905b80821115611dc4576000816000905550600101611dac565b5090565b90565b600082601f830112611ddc57600080fd5b8135611def611dea8261269c565b61266f565b91508082526020830160208301858383011115611e0b57600080fd5b611e168382846127b3565b50505092915050565b600081359050611e2e81612806565b92915050565b600060208284031215611e4657600080fd5b600082013567ffffffffffffffff811115611e6057600080fd5b611e6c84828501611dcb565b91505092915050565b600060208284031215611e8757600080fd5b6000611e9584828501611e1f565b91505092915050565b60008060408385031215611eb157600080fd5b6000611ebf85828601611e1f565b9250506020611ed085828601611e1f565b9150509250929050565b600080600060608486031215611eef57600080fd5b6000611efd86828701611e1f565b9350506020611f0e86828701611e1f565b9250506040611f1f86828701611e1f565b9150509250925092565b60008060008060808587031215611f3f57600080fd5b6000611f4d87828801611e1f565b9450506020611f5e87828801611e1f565b9350506040611f6f87828801611e1f565b925050606085013567ffffffffffffffff811115611f8c57600080fd5b611f9887828801611dcb565b91505092959194509250565b6000611fb08383612351565b60408301905092915050565b6000611fc883836123c2565b60608301905092915050565b611fdd81612761565b82525050565b611fec81612761565b82525050565b6000611ffd826126e8565b612007818561272e565b9350612012836126c8565b8060005b8381101561204357815161202a8882611fa4565b975061203583612714565b925050600181019050612016565b5085935050505092915050565b600061205b826126f3565b612065818561273f565b9350612070836126d8565b8060005b838110156120a15781516120888882611fbc565b975061209383612721565b925050600181019050612074565b5085935050505092915050565b6120b781612773565b82525050565b6120c68161277f565b82525050565b60006120d782612709565b6120e18185612750565b93506120f18185602086016127c2565b6120fa816127f5565b840191505092915050565b6000612110826126fe565b61211a8185612750565b935061212a8185602086016127c2565b612133816127f5565b840191505092915050565b600061214b603383612750565b91507f4f6e6c7920746865206f776e6572206f662074686973207469636b657420636160008301527f6e2073656c6c2074686973207469636b65742e000000000000000000000000006020830152604082019050919050565b60006121b1604283612750565b91507f54686973207469636b657420686173206265656e20626f7567687420616c726560008301527f61647920616e642069732063757272656e746c79206e6f7420666f722073616c60208301527f652e0000000000000000000000000000000000000000000000000000000000006040830152606082019050919050565b600061223d604583612750565b91507f4f6e6c7920746865206f776e6572206f662074686973207469636b657420636160008301527f6e2073746f70207468652073656c6c206f72646572206f66207468697320746960208301527f636b65742e0000000000000000000000000000000000000000000000000000006040830152606082019050919050565b60006122c9602a83612750565b91507f5468652076616c756520646f6573206e6f74206d61746368207468652074696360008301527f6b65742070726963652e000000000000000000000000000000000000000000006020830152604082019050919050565b6040820160008201516123386000850182612404565b50602082015161234b6020850182611fd4565b50505050565b6040820160008201516123676000850182612404565b50602082015161237a6020850182611fd4565b50505050565b6060820160008201516123966000850182612404565b5060208201516123a96020850182611fd4565b5060408201516123bc60408501826120ae565b50505050565b6060820160008201516123d86000850182612404565b5060208201516123eb6020850182611fd4565b5060408201516123fe60408501826120ae565b50505050565b61240d816127a9565b82525050565b61241c816127a9565b82525050565b600060c0820190506124376000830189611fe3565b6124446020830188612413565b81810360408301526124568187612105565b905061246560608301866120bd565b6124726080830185612413565b61247f60a0830184612413565b979650505050505050565b600060208201905081810360008301526124a48184611ff2565b905092915050565b600060208201905081810360008301526124c68184612050565b905092915050565b600060a08201905081810360008301526124e881886120cc565b90506124f760208301876120bd565b6125046040830186612413565b6125116060830185612413565b61251e6080830184612413565b9695505050505050565b600060e0820190508181036000830152612542818a6120cc565b905061255160208301896120bd565b61255e6040830188612413565b61256b6060830187612413565b6125786080830186612413565b61258560a0830185612413565b61259260c0830184612413565b98975050505050505050565b600060208201905081810360008301526125b78161213e565b9050919050565b600060208201905081810360008301526125d7816121a4565b9050919050565b600060208201905081810360008301526125f781612230565b9050919050565b60006020820190508181036000830152612617816122bc565b9050919050565b60006040820190506126336000830184612322565b92915050565b600060608201905061264e6000830184612380565b92915050565b60006020820190506126696000830184612413565b92915050565b6000604051905081810181811067ffffffffffffffff8211171561269257600080fd5b8060405250919050565b600067ffffffffffffffff8211156126b357600080fd5b601f19601f8301169050602081019050919050565b6000819050602082019050919050565b6000819050602082019050919050565b600081519050919050565b600081519050919050565b600081519050919050565b600081519050919050565b6000602082019050919050565b6000602082019050919050565b600082825260208201905092915050565b600082825260208201905092915050565b600082825260208201905092915050565b600061276c82612789565b9050919050565b60008115159050919050565b6000819050919050565b600073ffffffffffffffffffffffffffffffffffffffff82169050919050565b6000819050919050565b82818337600083830152505050565b60005b838110156127e05780820151818401526020810190506127c5565b838111156127ef576000848401525b50505050565b6000601f19601f8301169050919050565b61280f816127a9565b811461281a57600080fd5b5056fea365627a7a723158209e282f2ca4e49d280b929ca34af676835c8effab0f4b94550d55bdf8cc69f6896c6578706572696d656e74616cf564736f6c63430005100040",
  "source": "pragma solidity ^0.5.16;\npragma experimental ABIEncoderV2; //allows returning a struct from a function\n\n/*\nTODOS\n- option to open secondary market only when all tickets from the event are sold\n- send money for the event to an escrow service\n- affiliate program\n  - registering permitted ETH addressed for affiliate program\n  - define affiliate created\n  - payout affiliates from escrow account or for every ticket sale\n- check if address of ticket buyer is verified\n- multiple tickets linked to one address\n*/\n\ncontract EventFactory{\n    // Data structure that stores all events created\n    uint public eventIndex;\n    mapping (uint => Event) public events;\n\n\n    // ********** Event **********\n    struct Event{\n        address payable owner;\n        uint eventId;\n        string metadataURI; // JSON storing name, date, location, website, website certificate, ticket img url\n        bytes32 hashMetadata; // hash of JSON in order to verify the retrieved data\n        uint fungibleTicketFactoryIndex;\n        mapping (uint => FungibleTicketFactory) fungibleTickets;\n        uint nonFungibleTicketFactoryIndex;\n        mapping (uint => NonFungibleTicketFactory) nonFungibleTickets;\n        \n        // TODO allowed different verification methods\n        // TODO affiliate addressess\n    }\n    \n    function createEvent(string memory _metadataURI) public{\n        events[eventIndex] = Event({\n            owner: msg.sender,\n            eventId: eventIndex,\n            metadataURI: _metadataURI,\n            hashMetadata: keccak256(bytes(_metadataURI)),\n            fungibleTicketFactoryIndex: 0,\n            nonFungibleTicketFactoryIndex:0\n        });\n        eventIndex++;\n    }\n    \n    \n    // ********** Fungible Tickets **********\n    // Tickets which are indifferent to each other (eg. standing room area 1)\n    struct FungibleTicket{\n        uint id;\n        address payable owner;\n    }\n    \n    struct FungibleTicketFactory{\n        \n        // ticket details\n        string metadataURI; // JSON storing ticket details such VIP access\n        bytes32 hashMetadata; // hash of JSON to verify the retrieved data\n        uint numberTickets;\n        uint ticketPrice;\n        \n        // keeping track of sold tickets \n        // using hashes as ids\n        uint ticketIndex;\n        mapping (uint => FungibleTicket) tickets;\n\n        // parameters for secondary market logic\n        uint sellingQueueHead;\n        uint sellingQueueTail;\n        uint buyingQueueHead;\n        uint buyingQueueTail;\n        mapping (uint => FungibleTicket) sellingQueue;\n        mapping (uint => address payable) buyingQueue;\n    }\n    \n    function addFungibleTicketFactory(uint _eventId, uint _ticketPrice, uint _numberTickets, string memory _metadataURI) public{\n        // TODO only owner of the event can add tickets\n        uint fungibleTicketFactoryIndex = events[_eventId].fungibleTicketFactoryIndex;\n        events[_eventId].fungibleTickets[fungibleTicketFactoryIndex] = FungibleTicketFactory({\n            metadataURI: _metadataURI,\n            hashMetadata: keccak256(bytes(_metadataURI)),\n            numberTickets: _numberTickets,\n            ticketPrice: _ticketPrice,\n            ticketIndex: 0,\n            sellingQueueHead: 0,\n            sellingQueueTail: 0,\n            buyingQueueHead: 0,\n            buyingQueueTail: 0\n        });\n        events[_eventId].fungibleTicketFactoryIndex++;\n    }\n    \n    function buyFungibleTicket(uint _eventId, uint _fungibleTicketFactoryId) public payable{\n        // TODO Check if msg.sender is has verified ID in verification smart contract\n        \n        FungibleTicketFactory storage ft = events[_eventId].fungibleTickets[_fungibleTicketFactoryId];\n        require(msg.value == ft.ticketPrice, \"The value does not match the ticket price.\");\n        \n        address payable eventOwner = events[_eventId].owner;\n        \n        // if not all tickets have been issued, the buyer automatically buys from the event owner\n        if(ft.ticketIndex < ft.numberTickets){\n            issueFungibleTicket(ft, eventOwner);\n        }\n        \n        // if people want to sell tickets, the buyer automatically buys from the earliest seller\n        else if(ft.sellingQueueTail != ft.sellingQueueHead){\n            buyFromSellingQueue(ft);\n        }\n        \n        // if nobody wants to sell yet, the buyer joins the buying queue\n        // money is stored in the smart contract\n        else{\n            joinBuyingQueue(ft);\n        }\n    }\n\n    function issueFungibleTicket(FungibleTicketFactory storage _ft, address payable _eventOwner) internal {\n        // issue the ticket\n        _ft.tickets[_ft.ticketIndex] = FungibleTicket({\n            id: _ft.ticketIndex,\n            owner: msg.sender\n        });\n\n        _ft.ticketIndex++;\n        \n        // TODO send ticket price to the event owner or escrow service\n        (_eventOwner).transfer(msg.value);\n    }\n    \n    function buyFromSellingQueue(FungibleTicketFactory storage _ft) internal{\n        // transfer money\n        (_ft.sellingQueue[_ft.sellingQueueHead].owner).transfer(_ft.ticketPrice);\n        \n        // transfer ownership\n        _ft.tickets[_ft.sellingQueue[_ft.sellingQueueHead].id].owner = msg.sender;\n        \n        // remove user from the queue\n        delete _ft.sellingQueue[_ft.sellingQueueHead];\n        _ft.sellingQueueHead++;\n    }\n    \n    function joinBuyingQueue(FungibleTicketFactory storage _ft) internal{\n        _ft.buyingQueue[_ft.buyingQueueTail] = msg.sender;\n        _ft.buyingQueueTail++;\n    }\n    \n    function sellFungibleTicket(uint _eventId, uint _fungibleTicketFactoryId, uint _ticketId) public{\n        FungibleTicketFactory storage ftf = events[_eventId].fungibleTickets[_fungibleTicketFactoryId];\n        \n        require(msg.sender == ftf.tickets[_ticketId].owner, \"Only the owner of this ticket can sell this ticket.\");\n        \n        // if people are in the waiting queue for buying tickets\n        if(ftf.buyingQueueTail != ftf.buyingQueueHead){\n            // transfer money\n            (msg.sender).transfer(ftf.ticketPrice);\n            \n            // transfer ownership\n            ftf.tickets[_ticketId].owner = ftf.buyingQueue[ftf.buyingQueueHead];\n            \n            // remove user from the queue\n            delete ftf.buyingQueue[ftf.buyingQueueHead];\n            ftf.buyingQueueHead++;\n        }\n        \n        // else join selling queue\n        else{\n            ftf.sellingQueue[ftf.sellingQueueTail] = ftf.tickets[_ticketId];\n            ftf.sellingQueueTail++;\n        }\n    }\n    \n    // TODO function to remove position in the buying queue and get money back\n    \n    \n    // ********** Non Fungible Tickets **********\n    // Tickets which cannot be replaced by another ticket of the same event such as theater ticket (seat reservation).\n    struct NonFungibleTicket{\n        uint id;\n        address payable owner;\n        bool isForSale;\n    }\n\n    struct NonFungibleTicketFactory{\n        uint numberTickets;\n        uint ticketPrice;\n            \n        string metadataURI; // JSON storing ticket details such as seat number\n        bytes32 hashMetadata; // hash of JSON to verify the retrieved data\n        \n        uint numberTicketsIssued;\n        \n        mapping (uint => NonFungibleTicket) tickets;\n    }\n    \n    function addNonFungibleTicketFactory(uint _eventId, uint _ticketPrice, uint _numberTickets, string memory _metadataURI) public{\n        // TODO only owner of the event can add tickets\n        uint nonFungibleTicketFactoryIndex = events[_eventId].nonFungibleTicketFactoryIndex;\n        events[_eventId].nonFungibleTickets[nonFungibleTicketFactoryIndex] = NonFungibleTicketFactory({\n            metadataURI: _metadataURI,\n            hashMetadata: keccak256(bytes(_metadataURI)),\n            numberTickets: _numberTickets,\n            ticketPrice: _ticketPrice,\n            numberTicketsIssued: 0\n        });\n        events[_eventId].nonFungibleTicketFactoryIndex++;\n    }\n\n    function buyNonFungibleTicket(uint _eventId, uint _nonFungibleTicketFactoryId, uint _ticketId) public payable{\n        // TODO Check if msg.sender is has verified ID in verification smart contract\n        NonFungibleTicketFactory storage nftf = events[_eventId].nonFungibleTickets[_nonFungibleTicketFactoryId];\n        require(msg.value == nftf.ticketPrice, \"The value does not match the ticket price.\");\n        require(nftf.tickets[_ticketId].owner == address(0) || nftf.tickets[_ticketId].isForSale, \"This ticket has been bought already and is currently not for sale.\");\n        \n        address payable eventOwner = events[_eventId].owner;\n        \n        // ticket has not been issued before, create a new ticket otherwise transfer the ownership\n        if (nftf.tickets[_ticketId].owner == address(0)){\n            issueNonFungibleTicket(nftf, _ticketId, msg.sender, msg.value, eventOwner);\n        }else{\n            changeTicketOwner(nftf, _ticketId, msg.sender, msg.value);\n        }\n    }\n    \n    function issueNonFungibleTicket(NonFungibleTicketFactory storage _nftf, uint _ticketId, address payable _owner, uint _ticketPrice, address payable _eventOwner) internal {\n        _nftf.tickets[_ticketId] = NonFungibleTicket({\n            id: _ticketId,\n            owner: _owner,\n            isForSale: false\n        });\n        \n        _nftf.numberTicketsIssued ++;\n        \n        // TODO send ticket price to an escrow service\n        (_eventOwner).transfer(_ticketPrice);\n    }\n    \n    function changeTicketOwner(NonFungibleTicketFactory storage _nftf, uint _ticketId, address payable _newOwner, uint _ticketValue) internal {\n        \n        // pay previous owner\n        (_nftf.tickets[_ticketId].owner).transfer(_ticketValue);\n        \n        // transfer ownership\n        _nftf.tickets[_ticketId].owner = _newOwner;\n    }\n    \n    function sellNonFungibleTicket(uint _eventId, uint _nonFungibleTicketFactoryId, uint _ticketId) public{\n        NonFungibleTicketFactory storage nftf = events[_eventId].nonFungibleTickets[_nonFungibleTicketFactoryId];\n        require(msg.sender == nftf.tickets[_ticketId].owner, \"Only the owner of this ticket can sell this ticket.\");\n        nftf.tickets[_ticketId].isForSale = true;\n    }\n    \n    function cancelSellOrderNonFungibleTicket(uint _eventId, uint _nonFungibleTicketFactoryId, uint _ticketId) public{\n        NonFungibleTicketFactory storage nftf = events[_eventId].nonFungibleTickets[_nonFungibleTicketFactoryId];\n        require(msg.sender == nftf.tickets[_ticketId].owner, \"Only the owner of this ticket can stop the sell order of this ticket.\");\n        nftf.tickets[_ticketId].isForSale = false;\n    }\n\n    // **** Getters ****\n    function getFungibleTicket(uint _eventId, uint _fungibleTicketFactoryId, uint _ticketId) public view returns(FungibleTicket memory _ticket){\n        return events[_eventId].fungibleTickets[_fungibleTicketFactoryId].tickets[_ticketId];\n    }\n\n    function getFungibleTickets(uint _eventId, uint _fungibleTicketFactoryId) public view returns(FungibleTicket[] memory _fts){\n        uint numTickets = events[_eventId].fungibleTickets[_fungibleTicketFactoryId].ticketIndex;\n        _fts = new FungibleTicket[](numTickets);\n        for(uint256 i = 0; i < numTickets; i++){\n            _fts[i] = events[_eventId].fungibleTickets[_fungibleTicketFactoryId].tickets[i];\n        }\n        return _fts;\n    }\n\n    function getFungibleTicketFactory(uint _eventId, uint _fungibleTicketFactoryId) public view returns(\n            string memory _metadataURI,\n            bytes32 _hashMetadata, \n            uint _numberTickets,\n            uint _ticketPrice,\n            uint _ticketIndex,\n            uint _sellingQueueHeadLength,\n            uint _buyingQueueHeadLength\n        ){\n        FungibleTicketFactory memory ftf = events[_eventId].fungibleTickets[_fungibleTicketFactoryId];\n        return (ftf.metadataURI, ftf.hashMetadata, ftf.numberTickets, ftf.ticketPrice, ftf.ticketIndex, ftf.sellingQueueHead - ftf.sellingQueueTail, ftf.buyingQueueHead - ftf.buyingQueueTail);\n    }\n\n    function getNonFungibleTicket(uint _eventId, uint _nonFungibleTicketFactoryId, uint _ticketId) public view returns(NonFungibleTicket memory _ticket){\n        return events[_eventId].nonFungibleTickets[_nonFungibleTicketFactoryId].tickets[_ticketId];\n    }    \n\n    function getNonFungibleTickets(uint _eventId, uint _nonFungibleTicketFactoryId) public view returns(NonFungibleTicket[] memory _nfts){\n        uint numTickets = events[_eventId].nonFungibleTickets[_nonFungibleTicketFactoryId].numberTicketsIssued;\n        \n        _nfts = new NonFungibleTicket[](numTickets);\n        \n        for(uint256 i = 0; i < numTickets; i++){\n            _nfts[i] = events[_eventId].nonFungibleTickets[_nonFungibleTicketFactoryId].tickets[i];\n        }\n        return _nfts;\n    }\n    \n        function getNonFungibleTicketFactory(uint _eventId, uint _nonFungibleTicketFactoryId) public view returns(\n            string memory _metadataURI,\n            bytes32 _hashMetadata, \n            uint _numberTickets,\n            uint _ticketPrice,\n            uint _numberTicketsIssued\n        ){\n        NonFungibleTicketFactory memory nftf = events[_eventId].nonFungibleTickets[_nonFungibleTicketFactoryId];\n        return (nftf.metadataURI, nftf.hashMetadata, nftf.numberTickets, nftf.ticketPrice, nftf.numberTicketsIssued);\n    }\n}",
  "sourcePath": "/home/yaboi/dev/guest-client/contracts/EventFactory.sol",
  "compiler": {
    "name": "solc",
    "version": "0.5.16+commit.9c3226ce.Emscripten.clang"
  },
  "schemaVersion": "3.2.0",
  "updatedAt": "2020-06-19T12:07:50.740Z",
  "devdoc": {
    "methods": {}
  },
  "userdoc": {
    "methods": {}
  }
}